{
  "contractName": "Election",
  "abi": [
    {
      "anonymous": false,
      "inputs": [
        {
          "indexed": false,
          "internalType": "uint256[]",
          "name": "_candidateId",
          "type": "uint256[]"
        }
      ],
      "name": "votedEvent",
      "type": "event"
    },
    {
      "constant": true,
      "inputs": [
        {
          "internalType": "uint256",
          "name": "",
          "type": "uint256"
        }
      ],
      "name": "candidates",
      "outputs": [
        {
          "internalType": "uint256",
          "name": "id",
          "type": "uint256"
        },
        {
          "internalType": "string",
          "name": "name",
          "type": "string"
        },
        {
          "internalType": "uint256",
          "name": "voteCount",
          "type": "uint256"
        },
        {
          "internalType": "string",
          "name": "post",
          "type": "string"
        }
      ],
      "payable": false,
      "stateMutability": "view",
      "type": "function"
    },
    {
      "constant": true,
      "inputs": [],
      "name": "candidatesCount",
      "outputs": [
        {
          "internalType": "uint256",
          "name": "",
          "type": "uint256"
        }
      ],
      "payable": false,
      "stateMutability": "view",
      "type": "function"
    },
    {
      "constant": true,
      "inputs": [
        {
          "internalType": "uint256",
          "name": "",
          "type": "uint256"
        }
      ],
      "name": "details",
      "outputs": [
        {
          "internalType": "string",
          "name": "schID",
          "type": "string"
        },
        {
          "internalType": "string",
          "name": "cpi",
          "type": "string"
        },
        {
          "internalType": "string",
          "name": "spi",
          "type": "string"
        },
        {
          "internalType": "string",
          "name": "addr",
          "type": "string"
        },
        {
          "internalType": "string",
          "name": "branch",
          "type": "string"
        },
        {
          "internalType": "string",
          "name": "hostelNo",
          "type": "string"
        }
      ],
      "payable": false,
      "stateMutability": "view",
      "type": "function"
    },
    {
      "constant": true,
      "inputs": [
        {
          "internalType": "address",
          "name": "",
          "type": "address"
        }
      ],
      "name": "voters",
      "outputs": [
        {
          "internalType": "bool",
          "name": "",
          "type": "bool"
        }
      ],
      "payable": false,
      "stateMutability": "view",
      "type": "function"
    },
    {
      "constant": false,
      "inputs": [
        {
          "internalType": "string",
          "name": "_name",
          "type": "string"
        },
        {
          "internalType": "string",
          "name": "_post",
          "type": "string"
        },
        {
          "internalType": "string",
          "name": "_schID",
          "type": "string"
        },
        {
          "internalType": "string",
          "name": "_cpi",
          "type": "string"
        },
        {
          "internalType": "string",
          "name": "_spi",
          "type": "string"
        },
        {
          "internalType": "string",
          "name": "_addr",
          "type": "string"
        },
        {
          "internalType": "string",
          "name": "_branch",
          "type": "string"
        },
        {
          "internalType": "string",
          "name": "_hostelNo",
          "type": "string"
        }
      ],
      "name": "addCandidate",
      "outputs": [],
      "payable": false,
      "stateMutability": "nonpayable",
      "type": "function"
    },
    {
      "constant": false,
      "inputs": [
        {
          "internalType": "string",
          "name": "_name",
          "type": "string"
        },
        {
          "internalType": "string",
          "name": "_post",
          "type": "string"
        }
      ],
      "name": "removeCandidate",
      "outputs": [
        {
          "internalType": "bool",
          "name": "",
          "type": "bool"
        }
      ],
      "payable": false,
      "stateMutability": "nonpayable",
      "type": "function"
    },
    {
      "constant": false,
      "inputs": [
        {
          "internalType": "uint256[]",
          "name": "_candidateId",
          "type": "uint256[]"
        }
      ],
      "name": "vote",
      "outputs": [],
      "payable": false,
      "stateMutability": "nonpayable",
      "type": "function"
    }
  ],
  "bytecode": "0x608060405234801561001057600080fd5b50611b26806100206000396000f3fe608060405234801561001057600080fd5b506004361061007d5760003560e01c8063a005ec7a1161005b578063a005ec7a1461069e578063a3ec138d14610961578063ce11f2bb146109bd578063de37a90814610a755761007d565b806313bad72f146100825780632d35a8a21461055f5780633477ee2e1461057d575b600080fd5b61055d600480360361010081101561009957600080fd5b81019080803590602001906401000000008111156100b657600080fd5b8201836020820111156100c857600080fd5b803590602001918460018302840111640100000000831117156100ea57600080fd5b91908080601f016020809104026020016040519081016040528093929190818152602001838380828437600081840152601f19601f8201169050808301925050505050505091929192908035906020019064010000000081111561014d57600080fd5b82018360208201111561015f57600080fd5b8035906020019184600183028401116401000000008311171561018157600080fd5b91908080601f016020809104026020016040519081016040528093929190818152602001838380828437600081840152601f19601f820116905080830192505050505050509192919290803590602001906401000000008111156101e457600080fd5b8201836020820111156101f657600080fd5b8035906020019184600183028401116401000000008311171561021857600080fd5b91908080601f016020809104026020016040519081016040528093929190818152602001838380828437600081840152601f19601f8201169050808301925050505050505091929192908035906020019064010000000081111561027b57600080fd5b82018360208201111561028d57600080fd5b803590602001918460018302840111640100000000831117156102af57600080fd5b91908080601f016020809104026020016040519081016040528093929190818152602001838380828437600081840152601f19601f8201169050808301925050505050505091929192908035906020019064010000000081111561031257600080fd5b82018360208201111561032457600080fd5b8035906020019184600183028401116401000000008311171561034657600080fd5b91908080601f016020809104026020016040519081016040528093929190818152602001838380828437600081840152601f19601f820116905080830192505050505050509192919290803590602001906401000000008111156103a957600080fd5b8201836020820111156103bb57600080fd5b803590602001918460018302840111640100000000831117156103dd57600080fd5b91908080601f016020809104026020016040519081016040528093929190818152602001838380828437600081840152601f19601f8201169050808301925050505050505091929192908035906020019064010000000081111561044057600080fd5b82018360208201111561045257600080fd5b8035906020019184600183028401116401000000008311171561047457600080fd5b91908080601f016020809104026020016040519081016040528093929190818152602001838380828437600081840152601f19601f820116905080830192505050505050509192919290803590602001906401000000008111156104d757600080fd5b8201836020820111156104e957600080fd5b8035906020019184600183028401116401000000008311171561050b57600080fd5b91908080601f016020809104026020016040519081016040528093929190818152602001838380828437600081840152601f19601f820116905080830192505050505050509192919290505050610bdf565b005b610567610d78565b6040518082815260200191505060405180910390f35b6105a96004803603602081101561059357600080fd5b8101908080359060200190929190505050610d7e565b604051808581526020018060200184815260200180602001838103835286818151815260200191508051906020019080838360005b838110156105f95780820151818401526020810190506105de565b50505050905090810190601f1680156106265780820380516001836020036101000a031916815260200191505b50838103825284818151815260200191508051906020019080838360005b8381101561065f578082015181840152602081019050610644565b50505050905090810190601f16801561068c5780820380516001836020036101000a031916815260200191505b50965050505050505060405180910390f35b6106ca600480360360208110156106b457600080fd5b8101908080359060200190929190505050610ede565b6040518080602001806020018060200180602001806020018060200187810387528d818151815260200191508051906020019080838360005b8381101561071e578082015181840152602081019050610703565b50505050905090810190601f16801561074b5780820380516001836020036101000a031916815260200191505b5087810386528c818151815260200191508051906020019080838360005b83811015610784578082015181840152602081019050610769565b50505050905090810190601f1680156107b15780820380516001836020036101000a031916815260200191505b5087810385528b818151815260200191508051906020019080838360005b838110156107ea5780820151818401526020810190506107cf565b50505050905090810190601f1680156108175780820380516001836020036101000a031916815260200191505b5087810384528a818151815260200191508051906020019080838360005b83811015610850578082015181840152602081019050610835565b50505050905090810190601f16801561087d5780820380516001836020036101000a031916815260200191505b50878103835289818151815260200191508051906020019080838360005b838110156108b657808201518184015260208101905061089b565b50505050905090810190601f1680156108e35780820380516001836020036101000a031916815260200191505b50878103825288818151815260200191508051906020019080838360005b8381101561091c578082015181840152602081019050610901565b50505050905090810190601f1680156109495780820380516001836020036101000a031916815260200191505b509c5050505050505050505050505060405180910390f35b6109a36004803603602081101561097757600080fd5b81019080803573ffffffffffffffffffffffffffffffffffffffff1690602001909291905050506112aa565b604051808215151515815260200191505060405180910390f35b610a73600480360360208110156109d357600080fd5b81019080803590602001906401000000008111156109f057600080fd5b820183602082011115610a0257600080fd5b80359060200191846020830284011164010000000083111715610a2457600080fd5b919080806020026020016040519081016040528093929190818152602001838360200280828437600081840152601f19601f8201169050808301925050505050505091929192905050506112ca565b005b610bc560048036036040811015610a8b57600080fd5b8101908080359060200190640100000000811115610aa857600080fd5b820183602082011115610aba57600080fd5b80359060200191846001830284011164010000000083111715610adc57600080fd5b91908080601f016020809104026020016040519081016040528093929190818152602001838380828437600081840152601f19601f82011690508083019250505050505050919291929080359060200190640100000000811115610b3f57600080fd5b820183602082011115610b5157600080fd5b80359060200191846001830284011164010000000083111715610b7357600080fd5b91908080601f016020809104026020016040519081016040528093929190818152602001838380828437600081840152601f19601f8201169050808301925050505050505091929192905050506114a6565b604051808215151515815260200191505060405180910390f35b600360008154809291906001019190505550604051806080016040528060035481526020018981526020016000815260200188815250600160006003548152602001908152602001600020600082015181600001556020820151816001019080519060200190610c5092919061197d565b50604082015181600201556060820151816003019080519060200190610c7792919061197d565b509050506040518060c00160405280878152602001868152602001858152602001848152602001838152602001828152506002600060035481526020019081526020016000206000820151816000019080519060200190610cd992919061197d565b506020820151816001019080519060200190610cf692919061197d565b506040820151816002019080519060200190610d1392919061197d565b506060820151816003019080519060200190610d3092919061197d565b506080820151816004019080519060200190610d4d92919061197d565b5060a0820151816005019080519060200190610d6a92919061197d565b509050505050505050505050565b60035481565b6001602052806000526040600020600091509050806000015490806001018054600181600116156101000203166002900480601f016020809104026020016040519081016040528092919081815260200182805460018160011615610100020316600290048015610e305780601f10610e0557610100808354040283529160200191610e30565b820191906000526020600020905b815481529060010190602001808311610e1357829003601f168201915b505050505090806002015490806003018054600181600116156101000203166002900480601f016020809104026020016040519081016040528092919081815260200182805460018160011615610100020316600290048015610ed45780601f10610ea957610100808354040283529160200191610ed4565b820191906000526020600020905b815481529060010190602001808311610eb757829003601f168201915b5050505050905084565b6002602052806000526040600020600091509050806000018054600181600116156101000203166002900480601f016020809104026020016040519081016040528092919081815260200182805460018160011615610100020316600290048015610f8a5780601f10610f5f57610100808354040283529160200191610f8a565b820191906000526020600020905b815481529060010190602001808311610f6d57829003601f168201915b505050505090806001018054600181600116156101000203166002900480601f0160208091040260200160405190810160405280929190818152602001828054600181600116156101000203166002900480156110285780601f10610ffd57610100808354040283529160200191611028565b820191906000526020600020905b81548152906001019060200180831161100b57829003601f168201915b505050505090806002018054600181600116156101000203166002900480601f0160208091040260200160405190810160405280929190818152602001828054600181600116156101000203166002900480156110c65780601f1061109b576101008083540402835291602001916110c6565b820191906000526020600020905b8154815290600101906020018083116110a957829003601f168201915b505050505090806003018054600181600116156101000203166002900480601f0160208091040260200160405190810160405280929190818152602001828054600181600116156101000203166002900480156111645780601f1061113957610100808354040283529160200191611164565b820191906000526020600020905b81548152906001019060200180831161114757829003601f168201915b505050505090806004018054600181600116156101000203166002900480601f0160208091040260200160405190810160405280929190818152602001828054600181600116156101000203166002900480156112025780601f106111d757610100808354040283529160200191611202565b820191906000526020600020905b8154815290600101906020018083116111e557829003601f168201915b505050505090806005018054600181600116156101000203166002900480601f0160208091040260200160405190810160405280929190818152602001828054600181600116156101000203166002900480156112a05780601f10611275576101008083540402835291602001916112a0565b820191906000526020600020905b81548152906001019060200180831161128357829003601f168201915b5050505050905086565b60006020528060005260406000206000915054906101000a900460ff1681565b6000803373ffffffffffffffffffffffffffffffffffffffff1673ffffffffffffffffffffffffffffffffffffffff16815260200190815260200160002060009054906101000a900460ff161561132057600080fd5b60008090505b815181101561137d57600082828151811061133d57fe5b6020026020010151118015611367575060035482828151811061135c57fe5b602002602001015111155b61137057600080fd5b8080600101915050611326565b5060016000803373ffffffffffffffffffffffffffffffffffffffff1673ffffffffffffffffffffffffffffffffffffffff16815260200190815260200160002060006101000a81548160ff02191690831515021790555060008090505b815181101561142a57600160008383815181106113f457fe5b602002602001015181526020019081526020016000206002016000815480929190600101919050555080806001019150506113db565b507fa6c7426a815a14c53aa622dc6aa839e1e21e7a3071b913967b7b994e98cc405c816040518080602001828103825283818151815260200191508051906020019060200280838360005b83811015611490578082015181840152602081019050611475565b505050509050019250505060405180910390a150565b6000806000905060008090506000600190505b60035481116116ae57858051906020012060016000838152602001908152602001600020600101604051808280546001816001161561010002031660029004801561153b5780601f1061151957610100808354040283529182019161153b565b820191906000526020600020905b815481529060010190602001808311611527575b505091505060405180910390201480156115d8575084805190602001206001600083815260200190815260200160002060030160405180828054600181600116156101000203166002900480156115c95780601f106115a75761010080835404028352918201916115c9565b820191906000526020600020905b8154815290600101906020018083116115b5575b50509150506040518091039020145b156116a1576001600082815260200190815260200160002060008082016000905560018201600061160991906119fd565b600282016000905560038201600061162191906119fd565b5050600260008281526020019081526020016000206000808201600061164791906119fd565b60018201600061165791906119fd565b60028201600061166791906119fd565b60038201600061167791906119fd565b60048201600061168791906119fd565b60058201600061169791906119fd565b5050809250600191505b80806001019150506114b9565b50801561195f5760006001830190505b600354811161195d5760016000828152602001908152602001600020600160006001840381526020019081526020016000206000820154816000015560018201816001019080546001816001161561010002031660029004611721929190611a45565b506002820154816002015560038201816003019080546001816001161561010002031660029004611753929190611a45565b50905050600181036001600060018403815260200190815260200160002060000181905550600160008281526020019081526020016000206000808201600090556001820160006117a491906119fd565b60028201600090556003820160006117bc91906119fd565b505060026000828152602001908152602001600020600260006001840381526020019081526020016000206000820181600001908054600181600116156101000203166002900461180e929190611a45565b5060018201816001019080546001816001161561010002031660029004611836929190611a45565b506002820181600201908054600181600116156101000203166002900461185e929190611a45565b5060038201816003019080546001816001161561010002031660029004611886929190611a45565b50600482018160040190805460018160011615610100020316600290046118ae929190611a45565b50600582018160050190805460018160011615610100020316600290046118d6929190611a45565b5090505060026000828152602001908152602001600020600080820160006118fe91906119fd565b60018201600061190e91906119fd565b60028201600061191e91906119fd565b60038201600061192e91906119fd565b60048201600061193e91906119fd565b60058201600061194e91906119fd565b505080806001019150506116be565b505b60036000815480929190600190039190505550809250505092915050565b828054600181600116156101000203166002900490600052602060002090601f016020900481019282601f106119be57805160ff19168380011785556119ec565b828001600101855582156119ec579182015b828111156119eb5782518255916020019190600101906119d0565b5b5090506119f99190611acc565b5090565b50805460018160011615610100020316600290046000825580601f10611a235750611a42565b601f016020900490600052602060002090810190611a419190611acc565b5b50565b828054600181600116156101000203166002900490600052602060002090601f016020900481019282601f10611a7e5780548555611abb565b82800160010185558215611abb57600052602060002091601f016020900482015b82811115611aba578254825591600101919060010190611a9f565b5b509050611ac89190611acc565b5090565b611aee91905b80821115611aea576000816000905550600101611ad2565b5090565b9056fea265627a7a723158202d76326c49125c766b2642613701553f1ee4cf6bf2c4e94cf33916005bf2679e64736f6c63430005100032",
  "source": "pragma solidity ^0.5.16;\n\ncontract Election {\n    // Model a Candidate\n    struct Candidate {\n        uint256 id;\n        string name;\n        uint256 voteCount;\n        string post;\n    }\n\n    struct Detail {\n        string schID;\n        string cpi;\n        string spi;\n        string addr;\n        string branch;\n        string hostelNo;\n    }\n\n    // Store accounts that have voted\n    mapping(address => bool) public voters;\n    // Store Candidates\n    // Fetch Candidate\n    mapping(uint256 => Candidate) public candidates;\n    mapping(uint256 => Detail) public details;\n    // Store Candidates Count\n    uint256 public candidatesCount;\n\n    // voted event\n\n    event votedEvent(uint256[] _candidateId);\n\n    // constructor() public {\n    //     addCandidate(\"A\", \"VP\");\n    //     addCandidate(\"B\", \"GS\");\n    //     addCandidate(\"C\", \"VP\");\n    //     addCandidate(\"D\", \"GS\");\n    //     addCandidate(\"E\", \"CS\");\n    //     addCandidate(\"F\", \"CS\");\n    //     addCandidate(\"G\", \"SS\");\n    //     addCandidate(\"H\", \"SS\");\n    // }\n\n    function addCandidate(\n        string memory _name,\n        string memory _post,\n        string memory _schID,\n        string memory _cpi,\n        string memory _spi,\n        string memory _addr,\n        string memory _branch,\n        string memory _hostelNo\n    ) public {\n        candidatesCount++;\n        candidates[candidatesCount] = Candidate(\n            candidatesCount,\n            _name,\n            0,\n            _post\n        );\n        details[candidatesCount] = Detail(\n            _schID,\n            _cpi,\n            _spi,\n            _addr,\n            _branch,\n            _hostelNo\n        );\n    }\n\n    function removeCandidate(string memory _name, string memory _post)\n        public\n        returns (bool)\n    {\n        uint256 ind = 0;\n        bool flag = false;\n        for (uint256 i = 1; i <= candidatesCount; i++) {\n            if (\n                keccak256(bytes(candidates[i].name)) ==\n                keccak256(bytes(_name)) &&\n                keccak256(bytes(candidates[i].post)) == keccak256(bytes(_post))\n            ) {\n                delete candidates[i];\n                delete details[i];\n                ind = i;\n                flag = true;\n            }\n        }\n        if (flag) {\n            for (uint256 i = ind + 1; i <= candidatesCount; i++) {\n                candidates[i - 1] = candidates[i];\n                candidates[i - 1].id = i - 1;\n                delete candidates[i];\n                details[i - 1] = details[i];\n                delete details[i];\n            }\n        }\n        candidatesCount--;\n        return flag;\n    }\n\n    function vote(uint256[] memory _candidateId) public {\n        // require that they haven't voted before\n        require(!voters[msg.sender]);\n\n        // require a valid candidate\n        for (uint256 i = 0; i < _candidateId.length; i++) {\n            require(_candidateId[i] > 0 && _candidateId[i] <= candidatesCount);\n        }\n\n        // record that voter has voted\n        voters[msg.sender] = true;\n\n        // update candidate vote Count\n        for (uint256 i = 0; i < _candidateId.length; i++) {\n            candidates[_candidateId[i]].voteCount++;\n        }\n\n        // trigger voted event\n        emit votedEvent(_candidateId);\n    }\n}\n",
  "sourcePath": "/home/gideon/Work/Election-Blockchain/contracts/Election.sol",
  "compiler": {
    "name": "solc",
    "version": "0.5.16+commit.9c3226ce.Emscripten.clang"
  },
  "schemaVersion": "3.1.0",
  "updatedAt": "2020-09-01T15:20:13.299Z",
  "networkType": "ethereum",
  "devdoc": {
    "methods": {}
  },
  "userdoc": {
    "methods": {}
  }
}