{
  "contractName": "Election",
  "abi": [
    {
      "inputs": [],
      "payable": false,
      "stateMutability": "nonpayable",
      "type": "constructor"
    },
    {
      "anonymous": false,
      "inputs": [
        {
          "indexed": true,
          "internalType": "uint256[]",
          "name": "_candidateId",
          "type": "uint256[]"
        }
      ],
      "name": "votedEvent",
      "type": "event"
    },
    {
      "constant": true,
      "inputs": [
        {
          "internalType": "uint256",
          "name": "",
          "type": "uint256"
        }
      ],
      "name": "candidates",
      "outputs": [
        {
          "internalType": "uint256",
          "name": "id",
          "type": "uint256"
        },
        {
          "internalType": "string",
          "name": "name",
          "type": "string"
        },
        {
          "internalType": "uint256",
          "name": "voteCount",
          "type": "uint256"
        },
        {
          "internalType": "string",
          "name": "post",
          "type": "string"
        }
      ],
      "payable": false,
      "stateMutability": "view",
      "type": "function"
    },
    {
      "constant": true,
      "inputs": [],
      "name": "candidatesCount",
      "outputs": [
        {
          "internalType": "uint256",
          "name": "",
          "type": "uint256"
        }
      ],
      "payable": false,
      "stateMutability": "view",
      "type": "function"
    },
    {
      "constant": true,
      "inputs": [
        {
          "internalType": "address",
          "name": "",
          "type": "address"
        }
      ],
      "name": "voters",
      "outputs": [
        {
          "internalType": "bool",
          "name": "",
          "type": "bool"
        }
      ],
      "payable": false,
      "stateMutability": "view",
      "type": "function"
    },
    {
      "constant": false,
      "inputs": [
        {
          "internalType": "string",
          "name": "_name",
          "type": "string"
        },
        {
          "internalType": "string",
          "name": "_post",
          "type": "string"
        }
      ],
      "name": "addCandidate",
      "outputs": [],
      "payable": false,
      "stateMutability": "nonpayable",
      "type": "function"
    },
    {
      "constant": false,
      "inputs": [
        {
          "internalType": "string",
          "name": "_name",
          "type": "string"
        },
        {
          "internalType": "string",
          "name": "_post",
          "type": "string"
        }
      ],
      "name": "removeCandidate",
      "outputs": [
        {
          "internalType": "bool",
          "name": "",
          "type": "bool"
        }
      ],
      "payable": false,
      "stateMutability": "nonpayable",
      "type": "function"
    },
    {
      "constant": false,
      "inputs": [
        {
          "internalType": "uint256[]",
          "name": "_candidateId",
          "type": "uint256[]"
        }
      ],
      "name": "vote",
      "outputs": [],
      "payable": false,
      "stateMutability": "nonpayable",
      "type": "function"
    }
  ],
  "bytecode": "0x60806040523480156200001157600080fd5b506200008e6040518060400160405280600181526020017f41000000000000000000000000000000000000000000000000000000000000008152506040518060400160405280600281526020017f5650000000000000000000000000000000000000000000000000000000000000815250620003f860201b60201c565b6200010a6040518060400160405280600181526020017f42000000000000000000000000000000000000000000000000000000000000008152506040518060400160405280600281526020017f4753000000000000000000000000000000000000000000000000000000000000815250620003f860201b60201c565b620001866040518060400160405280600181526020017f43000000000000000000000000000000000000000000000000000000000000008152506040518060400160405280600281526020017f5650000000000000000000000000000000000000000000000000000000000000815250620003f860201b60201c565b620002026040518060400160405280600181526020017f44000000000000000000000000000000000000000000000000000000000000008152506040518060400160405280600281526020017f4753000000000000000000000000000000000000000000000000000000000000815250620003f860201b60201c565b6200027e6040518060400160405280600181526020017f45000000000000000000000000000000000000000000000000000000000000008152506040518060400160405280600281526020017f4353000000000000000000000000000000000000000000000000000000000000815250620003f860201b60201c565b620002fa6040518060400160405280600181526020017f46000000000000000000000000000000000000000000000000000000000000008152506040518060400160405280600281526020017f4353000000000000000000000000000000000000000000000000000000000000815250620003f860201b60201c565b620003766040518060400160405280600181526020017f47000000000000000000000000000000000000000000000000000000000000008152506040518060400160405280600281526020017f5353000000000000000000000000000000000000000000000000000000000000815250620003f860201b60201c565b620003f26040518060400160405280600181526020017f48000000000000000000000000000000000000000000000000000000000000008152506040518060400160405280600281526020017f5353000000000000000000000000000000000000000000000000000000000000815250620003f860201b60201c565b6200054b565b6002600081548092919060010191905055506040518060800160405280600254815260200183815260200160008152602001828152506001600060025481526020019081526020016000206000820151816000015560208201518160010190805190602001906200046b9291906200049c565b50604082015181600201556060820151816003019080519060200190620004949291906200049c565b509050505050565b828054600181600116156101000203166002900490600052602060002090601f016020900481019282601f10620004df57805160ff191683800117855562000510565b8280016001018555821562000510579182015b828111156200050f578251825591602001919060010190620004f2565b5b5090506200051f919062000523565b5090565b6200054891905b80821115620005445760008160009055506001016200052a565b5090565b90565b610de7806200055b6000396000f3fe608060405234801561001057600080fd5b50600436106100625760003560e01c806326541b56146100675780632d35a8a2146101b95780633477ee2e146101d7578063a3ec138d146102f8578063ce11f2bb14610354578063de37a9081461040c575b600080fd5b6101b76004803603604081101561007d57600080fd5b810190808035906020019064010000000081111561009a57600080fd5b8201836020820111156100ac57600080fd5b803590602001918460018302840111640100000000831117156100ce57600080fd5b91908080601f016020809104026020016040519081016040528093929190818152602001838380828437600081840152601f19601f8201169050808301925050505050505091929192908035906020019064010000000081111561013157600080fd5b82018360208201111561014357600080fd5b8035906020019184600183028401116401000000008311171561016557600080fd5b91908080601f016020809104026020016040519081016040528093929190818152602001838380828437600081840152601f19601f820116905080830192505050505050509192919290505050610576565b005b6101c1610616565b6040518082815260200191505060405180910390f35b610203600480360360208110156101ed57600080fd5b810190808035906020019092919050505061061c565b604051808581526020018060200184815260200180602001838103835286818151815260200191508051906020019080838360005b83811015610253578082015181840152602081019050610238565b50505050905090810190601f1680156102805780820380516001836020036101000a031916815260200191505b50838103825284818151815260200191508051906020019080838360005b838110156102b957808201518184015260208101905061029e565b50505050905090810190601f1680156102e65780820380516001836020036101000a031916815260200191505b50965050505050505060405180910390f35b61033a6004803603602081101561030e57600080fd5b81019080803573ffffffffffffffffffffffffffffffffffffffff16906020019092919050505061077c565b604051808215151515815260200191505060405180910390f35b61040a6004803603602081101561036a57600080fd5b810190808035906020019064010000000081111561038757600080fd5b82018360208201111561039957600080fd5b803590602001918460208302840111640100000000831117156103bb57600080fd5b919080806020026020016040519081016040528093929190818152602001838360200280828437600081840152601f19601f82011690508083019250505050505050919291929050505061079c565b005b61055c6004803603604081101561042257600080fd5b810190808035906020019064010000000081111561043f57600080fd5b82018360208201111561045157600080fd5b8035906020019184600183028401116401000000008311171561047357600080fd5b91908080601f016020809104026020016040519081016040528093929190818152602001838380828437600081840152601f19601f820116905080830192505050505050509192919290803590602001906401000000008111156104d657600080fd5b8201836020820111156104e857600080fd5b8035906020019184600183028401116401000000008311171561050a57600080fd5b91908080601f016020809104026020016040519081016040528093929190818152602001838380828437600081840152601f19601f82011690508083019250505050505050919291929050505061096f565b604051808215151515815260200191505060405180910390f35b6002600081548092919060010191905055506040518060800160405280600254815260200183815260200160008152602001828152506001600060025481526020019081526020016000206000820151816000015560208201518160010190805190602001906105e7929190610c3e565b5060408201518160020155606082015181600301908051906020019061060e929190610c3e565b509050505050565b60025481565b6001602052806000526040600020600091509050806000015490806001018054600181600116156101000203166002900480601f0160208091040260200160405190810160405280929190818152602001828054600181600116156101000203166002900480156106ce5780601f106106a3576101008083540402835291602001916106ce565b820191906000526020600020905b8154815290600101906020018083116106b157829003601f168201915b505050505090806002015490806003018054600181600116156101000203166002900480601f0160208091040260200160405190810160405280929190818152602001828054600181600116156101000203166002900480156107725780601f1061074757610100808354040283529160200191610772565b820191906000526020600020905b81548152906001019060200180831161075557829003601f168201915b5050505050905084565b60006020528060005260406000206000915054906101000a900460ff1681565b6000803373ffffffffffffffffffffffffffffffffffffffff1673ffffffffffffffffffffffffffffffffffffffff16815260200190815260200160002060009054906101000a900460ff16156107f257600080fd5b60008090505b815181101561084f57600082828151811061080f57fe5b6020026020010151118015610839575060025482828151811061082e57fe5b602002602001015111155b61084257600080fd5b80806001019150506107f8565b5060016000803373ffffffffffffffffffffffffffffffffffffffff1673ffffffffffffffffffffffffffffffffffffffff16815260200190815260200160002060006101000a81548160ff02191690831515021790555060008090505b81518110156108fc57600160008383815181106108c657fe5b602002602001015181526020019081526020016000206002016000815480929190600101919050555080806001019150506108ad565b508060405180828051906020019060200280838360005b8381101561092e578082015181840152602081019050610913565b5050505090500191505060405180910390207fa6c7426a815a14c53aa622dc6aa839e1e21e7a3071b913967b7b994e98cc405c60405160405180910390a250565b6000806000905060008090506000600190505b6002548111610b01578580519060200120600160008381526020019081526020016000206001016040518082805460018160011615610100020316600290048015610a045780601f106109e2576101008083540402835291820191610a04565b820191906000526020600020905b8154815290600101906020018083116109f0575b50509150506040518091039020148015610aa157508480519060200120600160008381526020019081526020016000206003016040518082805460018160011615610100020316600290048015610a925780601f10610a70576101008083540402835291820191610a92565b820191906000526020600020905b815481529060010190602001808311610a7e575b50509150506040518091039020145b15610af45760016000828152602001908152602001600020600080820160009055600182016000610ad29190610cbe565b6002820160009055600382016000610aea9190610cbe565b5050809250600191505b8080600101915050610982565b508015610c205760006001830190505b6002548111610c1e5760016000828152602001908152602001600020600160006001840381526020019081526020016000206000820154816000015560018201816001019080546001816001161561010002031660029004610b74929190610d06565b506002820154816002015560038201816003019080546001816001161561010002031660029004610ba6929190610d06565b5090505060018103600160006001840381526020019081526020016000206000018190555060016000828152602001908152602001600020600080820160009055600182016000610bf79190610cbe565b6002820160009055600382016000610c0f9190610cbe565b50508080600101915050610b11565b505b60026000815480929190600190039190505550809250505092915050565b828054600181600116156101000203166002900490600052602060002090601f016020900481019282601f10610c7f57805160ff1916838001178555610cad565b82800160010185558215610cad579182015b82811115610cac578251825591602001919060010190610c91565b5b509050610cba9190610d8d565b5090565b50805460018160011615610100020316600290046000825580601f10610ce45750610d03565b601f016020900490600052602060002090810190610d029190610d8d565b5b50565b828054600181600116156101000203166002900490600052602060002090601f016020900481019282601f10610d3f5780548555610d7c565b82800160010185558215610d7c57600052602060002091601f016020900482015b82811115610d7b578254825591600101919060010190610d60565b5b509050610d899190610d8d565b5090565b610daf91905b80821115610dab576000816000905550600101610d93565b5090565b9056fea265627a7a723158205dbdd788858813230bddd7617b61dedb6db1b379088c1f871da223352eeedb5364736f6c63430005100032",
  "source": "pragma solidity ^0.5.16;\n\n\ncontract Election {\n    // Model a Candidate\n    struct Candidate {\n        uint256 id;\n        string name;\n        uint256 voteCount;\n        string post;\n    }\n\n    // Store accounts that have voted\n    mapping(address => bool) public voters;\n    // Store Candidates\n    // Fetch Candidate\n    mapping(uint256 => Candidate) public candidates;\n    // Store Candidates Count\n    uint256 public candidatesCount;\n\n    // voted event\n    event votedEvent(uint256[] indexed _candidateId);\n\n    constructor() public {\n        addCandidate(\"A\", \"VP\");\n        addCandidate(\"B\", \"GS\");\n        addCandidate(\"C\", \"VP\");\n        addCandidate(\"D\", \"GS\");\n        addCandidate(\"E\", \"CS\");\n        addCandidate(\"F\", \"CS\");\n        addCandidate(\"G\", \"SS\");\n        addCandidate(\"H\", \"SS\");\n    }\n\n    function addCandidate(string memory _name, string memory _post) public {\n        candidatesCount++;\n        candidates[candidatesCount] = Candidate(\n            candidatesCount,\n            _name,\n            0,\n            _post\n        );\n    }\n\n    function removeCandidate(string memory _name, string memory _post)\n        public\n        returns (bool)\n    {\n        uint256 ind = 0;\n        bool flag = false;\n        for (uint256 i = 1; i <= candidatesCount; i++) {\n            if (\n                keccak256(bytes(candidates[i].name)) ==\n                keccak256(bytes(_name)) &&\n                keccak256(bytes(candidates[i].post)) == keccak256(bytes(_post))\n            ) {\n                delete candidates[i];\n                ind = i;\n                flag = true;\n            }\n        }\n        if (flag) {\n            for (uint256 i = ind + 1; i <= candidatesCount; i++) {\n                candidates[i - 1] = candidates[i];\n                candidates[i - 1].id = i - 1;\n                delete candidates[i];\n            }\n        }\n        candidatesCount--;\n        return flag;\n    }\n\n    function vote(uint256[] memory _candidateId) public {\n        // require that they haven't voted before\n        require(!voters[msg.sender]);\n\n        // require a valid candidate\n        for (uint256 i = 0; i < _candidateId.length; i++) {\n            require(_candidateId[i] > 0 && _candidateId[i] <= candidatesCount);\n        }\n\n        // record that voter has voted\n        voters[msg.sender] = true;\n\n        // update candidate vote Count\n        for (uint256 i = 0; i < _candidateId.length; i++) {\n            candidates[_candidateId[i]].voteCount++;\n        }\n\n        // trigger voted event\n        emit votedEvent(_candidateId);\n    }\n}\n",
  "sourcePath": "/home/gideon/Work/Ethereum/election_react/contracts/Election.sol",
  "compiler": {
    "name": "solc",
    "version": "0.5.16+commit.9c3226ce.Emscripten.clang"
  },
  "schemaVersion": "3.1.0",
  "updatedAt": "2020-05-21T12:35:11.319Z",
  "networkType": "ethereum",
  "devdoc": {
    "methods": {}
  },
  "userdoc": {
    "methods": {}
  }
}